{
  "_format": "hh-sol-artifact-1",
  "contractName": "BookPayment",
  "sourceName": "src/ethereum/contracts/BookPayment.sol",
  "abi": [
    {
      "inputs": [],
      "stateMutability": "nonpayable",
      "type": "constructor"
    },
    {
      "anonymous": false,
      "inputs": [
        {
          "indexed": false,
          "internalType": "string",
          "name": "orderId",
          "type": "string"
        },
        {
          "indexed": false,
          "internalType": "address",
          "name": "from",
          "type": "address"
        },
        {
          "indexed": false,
          "internalType": "uint256",
          "name": "amount",
          "type": "uint256"
        }
      ],
      "name": "PaymentCompleted",
      "type": "event"
    },
    {
      "anonymous": false,
      "inputs": [
        {
          "indexed": false,
          "internalType": "address",
          "name": "from",
          "type": "address"
        },
        {
          "indexed": false,
          "internalType": "uint256",
          "name": "amount",
          "type": "uint256"
        },
        {
          "indexed": false,
          "internalType": "string",
          "name": "orderId",
          "type": "string"
        }
      ],
      "name": "PaymentReceived",
      "type": "event"
    },
    {
      "inputs": [
        {
          "internalType": "string",
          "name": "",
          "type": "string"
        }
      ],
      "name": "completedPayments",
      "outputs": [
        {
          "internalType": "bool",
          "name": "",
          "type": "bool"
        }
      ],
      "stateMutability": "view",
      "type": "function"
    },
    {
      "inputs": [
        {
          "internalType": "string",
          "name": "orderId",
          "type": "string"
        }
      ],
      "name": "isPaymentCompleted",
      "outputs": [
        {
          "internalType": "bool",
          "name": "",
          "type": "bool"
        }
      ],
      "stateMutability": "view",
      "type": "function"
    },
    {
      "inputs": [
        {
          "internalType": "string",
          "name": "orderId",
          "type": "string"
        }
      ],
      "name": "makePayment",
      "outputs": [],
      "stateMutability": "payable",
      "type": "function"
    },
    {
      "inputs": [
        {
          "internalType": "string",
          "name": "",
          "type": "string"
        }
      ],
      "name": "orderAmounts",
      "outputs": [
        {
          "internalType": "uint256",
          "name": "",
          "type": "uint256"
        }
      ],
      "stateMutability": "view",
      "type": "function"
    },
    {
      "inputs": [],
      "name": "owner",
      "outputs": [
        {
          "internalType": "address",
          "name": "",
          "type": "address"
        }
      ],
      "stateMutability": "view",
      "type": "function"
    },
    {
      "inputs": [
        {
          "internalType": "string",
          "name": "orderId",
          "type": "string"
        },
        {
          "internalType": "uint256",
          "name": "amount",
          "type": "uint256"
        }
      ],
      "name": "setOrderAmount",
      "outputs": [],
      "stateMutability": "nonpayable",
      "type": "function"
    },
    {
      "inputs": [],
      "name": "withdraw",
      "outputs": [],
      "stateMutability": "nonpayable",
      "type": "function"
    }
  ],
  "bytecode": "0x608060405234801561001057600080fd5b50600080546001600160a01b03191633179055610784806100326000396000f3fe6080604052600436106100705760003560e01c8063976fc0401161004e578063976fc0401461011457806399e5f70014610134578063f4c7158d14610154578063f9e823e61461019a57600080fd5b80633ccfd60b146100755780633d8b5e4f1461008c5780638da5cb5b146100dc575b600080fd5b34801561008157600080fd5b5061008a6101ad565b005b34801561009857600080fd5b506100c76100a7366004610602565b805160208183018101805160018252928201919093012091525460ff1681565b60405190151581526020015b60405180910390f35b3480156100e857600080fd5b506000546100fc906001600160a01b031681565b6040516001600160a01b0390911681526020016100d3565b34801561012057600080fd5b5061008a61012f36600461063f565b6102dd565b34801561014057600080fd5b506100c761014f366004610602565b61034d565b34801561016057600080fd5b5061018c61016f366004610602565b805160208183018101805160028252928201919093012091525481565b6040519081526020016100d3565b61008a6101a8366004610602565b610378565b6000546001600160a01b031633146101fd5760405162461bcd60e51b815260206004820152600e60248201526d139bdd08185d5d1a1bdc9a5e995960921b60448201526064015b60405180910390fd5b47806102425760405162461bcd60e51b81526020600482015260146024820152734e6f2066756e647320746f20776974686472617760601b60448201526064016101f4565b600080546040516001600160a01b039091169083908381818185875af1925050503d806000811461028f576040519150601f19603f3d011682016040523d82523d6000602084013e610294565b606091505b50509050806102d95760405162461bcd60e51b815260206004820152601160248201527015da5d1a191c985dd85b0819985a5b1959607a1b60448201526064016101f4565b5050565b6000546001600160a01b031633146103285760405162461bcd60e51b815260206004820152600e60248201526d139bdd08185d5d1a1bdc9a5e995960921b60448201526064016101f4565b8060028360405161033991906106a8565b908152604051908190036020019020555050565b600060018260405161035f91906106a8565b9081526040519081900360200190205460ff1692915050565b600060028260405161038a91906106a8565b908152602001604051809103902054116103d85760405162461bcd60e51b815260206004820152600f60248201526e13dc99195c881b9bdd08199bdd5b99608a1b60448201526064016101f4565b6002816040516103e891906106a8565b9081526020016040518091039020543410156104465760405162461bcd60e51b815260206004820152601b60248201527f496e73756666696369656e74207061796d656e7420616d6f756e74000000000060448201526064016101f4565b60018160405161045691906106a8565b9081526040519081900360200190205460ff16156104b65760405162461bcd60e51b815260206004820152601960248201527f5061796d656e7420616c726561647920636f6d706c657465640000000000000060448201526064016101f4565b600180826040516104c791906106a8565b908152604051908190036020018120805492151560ff19909316929092179091557f8dfc1109af223bb7f4e48f38a8a7631f492f0106b90747a651bf181b0fc4e40290610519903390349085906106f0565b60405180910390a17f13d1118d2532a9b21c3e26bd2ba1b959263d90ea306c910ff6339e405192f1f281333460405161055493929190610720565b60405180910390a150565b634e487b7160e01b600052604160045260246000fd5b600082601f83011261058657600080fd5b813567ffffffffffffffff808211156105a1576105a161055f565b604051601f8301601f19908116603f011681019082821181831017156105c9576105c961055f565b816040528381528660208588010111156105e257600080fd5b836020870160208301376000602085830101528094505050505092915050565b60006020828403121561061457600080fd5b813567ffffffffffffffff81111561062b57600080fd5b61063784828501610575565b949350505050565b6000806040838503121561065257600080fd5b823567ffffffffffffffff81111561066957600080fd5b61067585828601610575565b95602094909401359450505050565b60005b8381101561069f578181015183820152602001610687565b50506000910152565b600082516106ba818460208701610684565b9190910192915050565b600081518084526106dc816020860160208601610684565b601f01601f19169290920160200192915050565b60018060a01b038416815282602082015260606040820152600061071760608301846106c4565b95945050505050565b60608152600061073360608301866106c4565b6001600160a01b03949094166020830152506040015291905056fea26469706673582212208a6a6c69b547d7fd34bcd62359dbbb81ac25ba840fa8a52ae4007a8f76b8114164736f6c63430008130033",
  "linkReferences": {},
  "deployedLinkReferences": {}
}